{
  "contractName": "MaterialContract",
  "abi": [
    {
      "inputs": [],
      "stateMutability": "nonpayable",
      "type": "constructor"
    },
    {
      "inputs": [],
      "name": "materialSize",
      "outputs": [
        {
          "internalType": "uint256",
          "name": "",
          "type": "uint256"
        }
      ],
      "stateMutability": "view",
      "type": "function",
      "constant": true
    },
    {
      "inputs": [
        {
          "internalType": "string",
          "name": "_nombre",
          "type": "string"
        },
        {
          "internalType": "string",
          "name": "_categoria",
          "type": "string"
        },
        {
          "internalType": "uint256",
          "name": "cantidad",
          "type": "uint256"
        }
      ],
      "name": "registerMaterial",
      "outputs": [],
      "stateMutability": "nonpayable",
      "type": "function"
    },
    {
      "inputs": [],
      "name": "getMaterials",
      "outputs": [
        {
          "components": [
            {
              "internalType": "uint256",
              "name": "id",
              "type": "uint256"
            },
            {
              "internalType": "string",
              "name": "nombre",
              "type": "string"
            },
            {
              "internalType": "string",
              "name": "categoria",
              "type": "string"
            },
            {
              "internalType": "uint256",
              "name": "cantidad",
              "type": "uint256"
            },
            {
              "internalType": "uint256",
              "name": "fechaRevision",
              "type": "uint256"
            },
            {
              "internalType": "address",
              "name": "usuarioR",
              "type": "address"
            },
            {
              "internalType": "bool",
              "name": "esActivo",
              "type": "bool"
            }
          ],
          "internalType": "struct MaterialContract.Material[]",
          "name": "",
          "type": "tuple[]"
        }
      ],
      "stateMutability": "view",
      "type": "function",
      "constant": true
    },
    {
      "inputs": [],
      "name": "setList",
      "outputs": [],
      "stateMutability": "nonpayable",
      "type": "function"
    },
    {
      "inputs": [
        {
          "internalType": "string",
          "name": "_nombre",
          "type": "string"
        },
        {
          "internalType": "string",
          "name": "_categoria",
          "type": "string"
        },
        {
          "internalType": "uint256",
          "name": "_cantidad",
          "type": "uint256"
        },
        {
          "internalType": "uint256",
          "name": "id",
          "type": "uint256"
        }
      ],
      "name": "modificarMaterial",
      "outputs": [],
      "stateMutability": "nonpayable",
      "type": "function"
    },
    {
      "inputs": [
        {
          "internalType": "uint256",
          "name": "id",
          "type": "uint256"
        }
      ],
      "name": "eliminarMaterial",
      "outputs": [],
      "stateMutability": "nonpayable",
      "type": "function"
    }
  ],
  "bytecode": "0x60806040523480156200001157600080fd5b50620000906040518060400160405280600581526020017f4c6170697a0000000000000000000000000000000000000000000000000000008152506040518060400160405280600681526020017f5574696c6573000000000000000000000000000000000000000000000000000081525060646200019260201b60201c565b6200010e6040518060400160405280600f81526020017f506170656c2068696769656e69636f00000000000000000000000000000000008152506040518060400160405280600781526020017f53616e696461640000000000000000000000000000000000000000000000000081525060c86200019260201b60201c565b6200018c6040518060400160405280600881526020017f426f727261646f720000000000000000000000000000000000000000000000008152506040518060400160405280600681526020017f5574696c6573000000000000000000000000000000000000000000000000000081525060326200019260201b60201c565b62000631565b60006040518060e0016040528060008054905081526020018581526020018481526020018381526020014281526020013373ffffffffffffffffffffffffffffffffffffffff16815260200160011515815250905060008190806001815401808255809150506001900390600052602060002090600602016000909190919091506000820151816000015560208201518160010190816200023491906200054a565b5060408201518160020190816200024c91906200054a565b50606082015181600301556080820151816004015560a08201518160050160006101000a81548173ffffffffffffffffffffffffffffffffffffffff021916908373ffffffffffffffffffffffffffffffffffffffff16021790555060c08201518160050160146101000a81548160ff021916908315150217905550505050505050565b600081519050919050565b7f4e487b7100000000000000000000000000000000000000000000000000000000600052604160045260246000fd5b7f4e487b7100000000000000000000000000000000000000000000000000000000600052602260045260246000fd5b600060028204905060018216806200035257607f821691505b6020821081036200036857620003676200030a565b5b50919050565b60008190508160005260206000209050919050565b60006020601f8301049050919050565b600082821b905092915050565b600060088302620003d27fffffffffffffffffffffffffffffffffffffffffffffffffffffffffffffffff8262000393565b620003de868362000393565b95508019841693508086168417925050509392505050565b6000819050919050565b6000819050919050565b60006200042b620004256200041f84620003f6565b62000400565b620003f6565b9050919050565b6000819050919050565b62000447836200040a565b6200045f620004568262000432565b848454620003a0565b825550505050565b600090565b6200047662000467565b620004838184846200043c565b505050565b5b81811015620004ab576200049f6000826200046c565b60018101905062000489565b5050565b601f821115620004fa57620004c4816200036e565b620004cf8462000383565b81016020851015620004df578190505b620004f7620004ee8562000383565b83018262000488565b50505b505050565b600082821c905092915050565b60006200051f60001984600802620004ff565b1980831691505092915050565b60006200053a83836200050c565b9150826002028217905092915050565b6200055582620002d0565b67ffffffffffffffff811115620005715762000570620002db565b5b6200057d825462000339565b6200058a828285620004af565b600060209050601f831160018114620005c25760008415620005ad578287015190505b620005b985826200052c565b86555062000629565b601f198416620005d2866200036e565b60005b82811015620005fc57848901518255600182019150602085019450602081019050620005d5565b868310156200061c578489015162000618601f8916826200050c565b8355505b6001600288020188555050505b505050505050565b6117c280620006416000396000f3fe608060405234801561001057600080fd5b50600436106100625760003560e01c8063046a9e0814610067578063306ae7c714610083578063679859801461008d5780637046ad42146100a957806380dfedcd146100c5578063d274bc71146100e3575b600080fd5b610081600480360381019061007c9190611016565b610101565b005b61008b6103de565b005b6100a760048036038101906100a291906110b5565b6106ff565b005b6100c360048036038101906100be9190611140565b610839565b005b6100cd610b08565b6040516100da91906113bc565b60405180910390f35b6100eb610d1a565b6040516100f891906113ed565b60405180910390f35b600080828154811061011657610115611408565b5b90600052602060002090600602016040518060e00160405290816000820154815260200160018201805461014990611466565b80601f016020809104026020016040519081016040528092919081815260200182805461017590611466565b80156101c25780601f10610197576101008083540402835291602001916101c2565b820191906000526020600020905b8154815290600101906020018083116101a557829003601f168201915b505050505081526020016002820180546101db90611466565b80601f016020809104026020016040519081016040528092919081815260200182805461020790611466565b80156102545780601f1061022957610100808354040283529160200191610254565b820191906000526020600020905b81548152906001019060200180831161023757829003601f168201915b5050505050815260200160038201548152602001600482015481526020016005820160009054906101000a900473ffffffffffffffffffffffffffffffffffffffff1673ffffffffffffffffffffffffffffffffffffffff1673ffffffffffffffffffffffffffffffffffffffff1681526020016005820160149054906101000a900460ff161515151581525050905084816020018190525082816060018181525050838160400181905250806000838154811061031557610314611408565b5b90600052602060002090600602016000820151816000015560208201518160010190816103429190611643565b5060408201518160020190816103589190611643565b50606082015181600301556080820151816004015560a08201518160050160006101000a81548173ffffffffffffffffffffffffffffffffffffffff021916908373ffffffffffffffffffffffffffffffffffffffff16021790555060c08201518160050160146101000a81548160ff0219169083151502179055509050505050505050565b600160006103ec9190610d26565b60006103f6610d1a565b9050610400610d4a565b60005b828110156106fa576000818154811061041f5761041e611408565b5b90600052602060002090600602016040518060e00160405290816000820154815260200160018201805461045290611466565b80601f016020809104026020016040519081016040528092919081815260200182805461047e90611466565b80156104cb5780601f106104a0576101008083540402835291602001916104cb565b820191906000526020600020905b8154815290600101906020018083116104ae57829003601f168201915b505050505081526020016002820180546104e490611466565b80601f016020809104026020016040519081016040528092919081815260200182805461051090611466565b801561055d5780601f106105325761010080835404028352916020019161055d565b820191906000526020600020905b81548152906001019060200180831161054057829003601f168201915b5050505050815260200160038201548152602001600482015481526020016005820160009054906101000a900473ffffffffffffffffffffffffffffffffffffffff1673ffffffffffffffffffffffffffffffffffffffff1673ffffffffffffffffffffffffffffffffffffffff1681526020016005820160149054906101000a900460ff1615151515815250509150600115158260c001511515036106dd5760018290806001815401808255809150506001900390600052602060002090600602016000909190919091506000820151816000015560208201518160010190816106489190611643565b50604082015181600201908161065e9190611643565b50606082015181600301556080820151816004015560a08201518160050160006101000a81548173ffffffffffffffffffffffffffffffffffffffff021916908373ffffffffffffffffffffffffffffffffffffffff16021790555060c08201518160050160146101000a81548160ff02191690831515021790555050505b6106e5610d4a565b915080806106f290611744565b915050610403565b505050565b60006040518060e0016040528060008054905081526020018581526020018481526020018381526020014281526020013373ffffffffffffffffffffffffffffffffffffffff168152602001600115158152509050600081908060018154018082558091505060019003906000526020600020906006020160009091909190915060008201518160000155602082015181600101908161079f9190611643565b5060408201518160020190816107b59190611643565b50606082015181600301556080820151816004015560a08201518160050160006101000a81548173ffffffffffffffffffffffffffffffffffffffff021916908373ffffffffffffffffffffffffffffffffffffffff16021790555060c08201518160050160146101000a81548160ff021916908315150217905550505050505050565b600080828154811061084e5761084d611408565b5b90600052602060002090600602016040518060e00160405290816000820154815260200160018201805461088190611466565b80601f01602080910402602001604051908101604052809291908181526020018280546108ad90611466565b80156108fa5780601f106108cf576101008083540402835291602001916108fa565b820191906000526020600020905b8154815290600101906020018083116108dd57829003601f168201915b5050505050815260200160028201805461091390611466565b80601f016020809104026020016040519081016040528092919081815260200182805461093f90611466565b801561098c5780601f106109615761010080835404028352916020019161098c565b820191906000526020600020905b81548152906001019060200180831161096f57829003601f168201915b5050505050815260200160038201548152602001600482015481526020016005820160009054906101000a900473ffffffffffffffffffffffffffffffffffffffff1673ffffffffffffffffffffffffffffffffffffffff1673ffffffffffffffffffffffffffffffffffffffff1681526020016005820160149054906101000a900460ff161515151581525050905060008160c00190151590811515815250508060008381548110610a4257610a41611408565b5b9060005260206000209060060201600082015181600001556020820151816001019081610a6f9190611643565b506040820151816002019081610a859190611643565b50606082015181600301556080820151816004015560a08201518160050160006101000a81548173ffffffffffffffffffffffffffffffffffffffff021916908373ffffffffffffffffffffffffffffffffffffffff16021790555060c08201518160050160146101000a81548160ff0219169083151502179055509050505050565b60606001805480602002602001604051908101604052809291908181526020016000905b82821015610d1157838290600052602060002090600602016040518060e001604052908160008201548152602001600182018054610b6990611466565b80601f0160208091040260200160405190810160405280929190818152602001828054610b9590611466565b8015610be25780601f10610bb757610100808354040283529160200191610be2565b820191906000526020600020905b815481529060010190602001808311610bc557829003601f168201915b50505050508152602001600282018054610bfb90611466565b80601f0160208091040260200160405190810160405280929190818152602001828054610c2790611466565b8015610c745780601f10610c4957610100808354040283529160200191610c74565b820191906000526020600020905b815481529060010190602001808311610c5757829003601f168201915b5050505050815260200160038201548152602001600482015481526020016005820160009054906101000a900473ffffffffffffffffffffffffffffffffffffffff1673ffffffffffffffffffffffffffffffffffffffff1673ffffffffffffffffffffffffffffffffffffffff1681526020016005820160149054906101000a900460ff16151515158152505081526020019060010190610b2c565b50505050905090565b60008080549050905090565b5080546000825560060290600052602060002090810190610d479190610d9f565b50565b6040518060e001604052806000815260200160608152602001606081526020016000815260200160008152602001600073ffffffffffffffffffffffffffffffffffffffff1681526020016000151581525090565b5b80821115610e2557600080820160009055600182016000610dc19190610e29565b600282016000610dd19190610e29565b600382016000905560048201600090556005820160006101000a81549073ffffffffffffffffffffffffffffffffffffffff02191690556005820160146101000a81549060ff021916905550600601610da0565b5090565b508054610e3590611466565b6000825580601f10610e475750610e66565b601f016020900490600052602060002090810190610e659190610e69565b5b50565b5b80821115610e82576000816000905550600101610e6a565b5090565b6000604051905090565b600080fd5b600080fd5b600080fd5b600080fd5b6000601f19601f8301169050919050565b7f4e487b7100000000000000000000000000000000000000000000000000000000600052604160045260246000fd5b610eed82610ea4565b810181811067ffffffffffffffff82111715610f0c57610f0b610eb5565b5b80604052505050565b6000610f1f610e86565b9050610f2b8282610ee4565b919050565b600067ffffffffffffffff821115610f4b57610f4a610eb5565b5b610f5482610ea4565b9050602081019050919050565b82818337600083830152505050565b6000610f83610f7e84610f30565b610f15565b905082815260208101848484011115610f9f57610f9e610e9f565b5b610faa848285610f61565b509392505050565b600082601f830112610fc757610fc6610e9a565b5b8135610fd7848260208601610f70565b91505092915050565b6000819050919050565b610ff381610fe0565b8114610ffe57600080fd5b50565b60008135905061101081610fea565b92915050565b600080600080608085870312156110305761102f610e90565b5b600085013567ffffffffffffffff81111561104e5761104d610e95565b5b61105a87828801610fb2565b945050602085013567ffffffffffffffff81111561107b5761107a610e95565b5b61108787828801610fb2565b935050604061109887828801611001565b92505060606110a987828801611001565b91505092959194509250565b6000806000606084860312156110ce576110cd610e90565b5b600084013567ffffffffffffffff8111156110ec576110eb610e95565b5b6110f886828701610fb2565b935050602084013567ffffffffffffffff81111561111957611118610e95565b5b61112586828701610fb2565b925050604061113686828701611001565b9150509250925092565b60006020828403121561115657611155610e90565b5b600061116484828501611001565b91505092915050565b600081519050919050565b600082825260208201905092915050565b6000819050602082019050919050565b6111a281610fe0565b82525050565b600081519050919050565b600082825260208201905092915050565b60005b838110156111e25780820151818401526020810190506111c7565b60008484015250505050565b60006111f9826111a8565b61120381856111b3565b93506112138185602086016111c4565b61121c81610ea4565b840191505092915050565b600073ffffffffffffffffffffffffffffffffffffffff82169050919050565b600061125282611227565b9050919050565b61126281611247565b82525050565b60008115159050919050565b61127d81611268565b82525050565b600060e08301600083015161129b6000860182611199565b50602083015184820360208601526112b382826111ee565b915050604083015184820360408601526112cd82826111ee565b91505060608301516112e26060860182611199565b5060808301516112f56080860182611199565b5060a083015161130860a0860182611259565b5060c083015161131b60c0860182611274565b508091505092915050565b60006113328383611283565b905092915050565b6000602082019050919050565b60006113528261116d565b61135c8185611178565b93508360208202850161136e85611189565b8060005b858110156113aa578484038952815161138b8582611326565b94506113968361133a565b925060208a01995050600181019050611372565b50829750879550505050505092915050565b600060208201905081810360008301526113d68184611347565b905092915050565b6113e781610fe0565b82525050565b600060208201905061140260008301846113de565b92915050565b7f4e487b7100000000000000000000000000000000000000000000000000000000600052603260045260246000fd5b7f4e487b7100000000000000000000000000000000000000000000000000000000600052602260045260246000fd5b6000600282049050600182168061147e57607f821691505b60208210810361149157611490611437565b5b50919050565b60008190508160005260206000209050919050565b60006020601f8301049050919050565b600082821b905092915050565b6000600883026114f97fffffffffffffffffffffffffffffffffffffffffffffffffffffffffffffffff826114bc565b61150386836114bc565b95508019841693508086168417925050509392505050565b6000819050919050565b600061154061153b61153684610fe0565b61151b565b610fe0565b9050919050565b6000819050919050565b61155a83611525565b61156e61156682611547565b8484546114c9565b825550505050565b600090565b611583611576565b61158e818484611551565b505050565b5b818110156115b2576115a760008261157b565b600181019050611594565b5050565b601f8211156115f7576115c881611497565b6115d1846114ac565b810160208510156115e0578190505b6115f46115ec856114ac565b830182611593565b50505b505050565b600082821c905092915050565b600061161a600019846008026115fc565b1980831691505092915050565b60006116338383611609565b9150826002028217905092915050565b61164c826111a8565b67ffffffffffffffff81111561166557611664610eb5565b5b61166f8254611466565b61167a8282856115b6565b600060209050601f8311600181146116ad576000841561169b578287015190505b6116a58582611627565b86555061170d565b601f1984166116bb86611497565b60005b828110156116e3578489015182556001820191506020850194506020810190506116be565b8683101561170057848901516116fc601f891682611609565b8355505b6001600288020188555050505b505050505050565b7f4e487b7100000000000000000000000000000000000000000000000000000000600052601160045260246000fd5b600061174f82610fe0565b91507fffffffffffffffffffffffffffffffffffffffffffffffffffffffffffffffff820361178157611780611715565b5b60018201905091905056fea2646970667358221220bcf21cc50d2311b919afb1f7f9c45b728f24d5505d64e95f89dde00df6eb76a364736f6c63430008100033",
  "immutableReferences": {},
  "source": "//SPDX-License-Identifier: CHIBOLITODEV\r\npragma solidity 0.8.16;\r\n\r\ncontract MaterialContract{\r\n\r\n    constructor(){\r\n        registerMaterial(\"Lapiz\",\"Utiles\", 100);\r\n        registerMaterial(\"Papel higienico\", \"Sanidad\",200);\r\n        registerMaterial(\"Borrador\",\"Utiles\", 50);\r\n        \r\n    }\r\n\r\n    struct Material{\r\n        uint id;\r\n        string nombre;\r\n        string categoria;\r\n        uint cantidad;\r\n        uint fechaRevision;\r\n        address usuarioR;\r\n        bool esActivo;\r\n        }\r\n\r\n    Material[] private listMaterial;\r\n    Material[] private list;\r\n    \r\n    function materialSize() public view returns(uint){\r\n        return listMaterial.length;\r\n    }\r\n\r\n    function registerMaterial(string memory _nombre,string memory _categoria, uint cantidad ) public {\r\n        Material memory _m = Material(listMaterial.length, _nombre, _categoria, cantidad, block.timestamp, msg.sender, true);\r\n        listMaterial.push(_m);\r\n    }\r\n\r\n    function getMaterials() public view returns (Material[] memory) {\r\n        return list;\r\n    }\r\n\r\n    function setList() public {\r\n        delete list;\r\n        uint size = materialSize();\r\n        Material memory _material;\r\n        for(uint i = 0; i < size; i++){\r\n            _material = listMaterial[i];\r\n             if(_material.esActivo == true){\r\n                 list.push(_material);   \r\n             }\r\n            delete _material;\r\n        }\r\n    }\r\n\r\n    function modificarMaterial(string memory _nombre, string memory _categoria, uint _cantidad, uint id) public {\r\n        Material memory _mat  = listMaterial[id];\r\n        _mat.nombre = _nombre;\r\n        _mat.cantidad = _cantidad;\r\n        _mat.categoria = _categoria;\r\n        listMaterial[id] = _mat;\r\n    }\r\n\r\n    function eliminarMaterial(uint id) public {\r\n        Material memory _mat  = listMaterial[id];\r\n        _mat.esActivo = false;\r\n        listMaterial[id] = _mat;\r\n    }\r\n}",
  "sourcePath": "C:\\Users\\danie\\OneDrive\\Escritorio\\solidity\\contracts\\MaterialContract.sol",
  "compiler": {
    "name": "solc",
    "version": "0.8.16+commit.07a7930e.Emscripten.clang"
  },
  "schemaVersion": "3.4.10",
  "updatedAt": "2022-09-19T21:08:22.685Z",
  "networkType": "ethereum",
  "devdoc": {
    "kind": "dev",
    "methods": {},
    "version": 1
  },
  "userdoc": {
    "kind": "user",
    "methods": {},
    "version": 1
  }
}